:0400000007EF00F016
:0A0008007D82EBED0BF05DEF13F0CD
:101000000064697374616E63653D00256900636DFA
:1010100000001350800B1C6E13501324226E12AE6E
:1010200014EF08F016EF08F017EF08F022802250B6
:10103000D8B41DEF08F01FEF08F032EF08F02228B7
:10104000D8A425EF08F027EF08F02FEF08F0000EE6
:10105000106E000E116E000E126E000E136E128EC8
:101060003AEF08F0000E106E000E116E000E126EB8
:10107000000E136E1750800B1C1A17501724216E88
:1010800016AE45EF08F047EF08F048EF08F0218072
:101090002150D8B44EEF08F050EF08F063EF08F09D
:1010A0002128D8A456EF08F058EF08F060EF08F0B8
:1010B000000E146E000E156E000E166E000E176EEA
:1010C000168E6BEF08F0000E146E000E156E000EFB
:1010D000166E000E176E2150D8B471EF08F073EF42
:1010E00008F07BEF08F02250D8A479EF08F07BEFEE
:1010F00008F085EF08F0000E106E000E116E000E65
:10110000126E000E136E1DEF0AF016501002F3CF90
:1011100027F0F4CF28F027501D6E1E6A1F6A206A40
:101120002850236E246A256A266A15501102F3CFCF
:1011300027F0F4CF28F027501D26000E1E221F2274
:10114000202228502326000E242225222622145055
:101150001202F3CF27F0F4CF28F027501D26000EFF
:101160001E221F22202228502326000E2422252260
:1011700026221FC020F01EC01FF01DC01EF01D6AD9
:1011800014501102F3CF27F0F4CF28F027501D267A
:1011900028501E22000E1F22000E20221550100281
:1011A000F3CF27F0F4CF28F027501D2628501E2219
:1011B000000E1F22000E20221FC020F01EC01FF0B4
:1011C0001DC01EF01D6A14501002F3CF27F0F4CF9B
:1011D00028F027501D2628501E22000E1F22000E28
:1011E000202216501102F3CF27F0F4CF28F0275019
:1011F000232628502422000E2522000E26221550D8
:101200001202F3CF27F0F4CF28F0275023262850DE
:101210002422000E2522000E262216501202F3CFA1
:1012200027F0F4CF28F02750186E2850196E1A6A4C
:101230001B6A1AC01BF019C01AF018C019F0186AFE
:1012400018502326195024221A5025221B502622DA
:101250001DC018F01EC019F01FC01AF020C01BF0EE
:10126000190E38EF09F0D8901B321A3219321832A1
:10127000E82E33EF09F018502326195024221A5073
:1012800025221B5026221FC020F01EC01FF01DC0AB
:101290001EF01D6A215022C018F0196A1826000E8F
:1012A0001922820E1824276EFF0E1920286E6EEF69
:1012B00009F0D890233624362536263620AE63EF43
:1012C00009F065EF09F066EF09F02380D8901D362C
:1012D0001E361F3620362706D8A0280625AE73EF07
:1012E00009F075EF09F059EF09F0000E216E20AEFC
:1012F0007CEF09F07EEF09F0A2EF09F0FF0E1D145C
:10130000186EFF0E1E14196EFF0E1F141A6E7F0E3C
:1013100020141B6E185019101A101B10D8B493EF1C
:1013200009F095EF09F099EF09F0010E216EA2EF97
:1013300009F023A09EEF09F0A0EF09F0A2EF09F059
:1013400095EF09F02150D8B4A8EF09F0AAEF09F001
:10135000CEEF09F0010E2326000E2422252226229C
:1013600026A0B5EF09F0B7EF09F0CEEF09F023C0E2
:1013700018F024C019F025C01AF026C01BF01B3449
:101380001B321A321932183218C023F019C024F057
:101390001AC025F01BC026F0274A282A28BED9EFFC
:1013A00009F0285008E12728D8A0D9EF09F0DBEF91
:1013B00009F0E5EF09F0000E236E000E246E800E9A
:1013C000256E7F0E266E13EF0AF028BEF2EF09F0AD
:1013D000285006E12704D8B0F0EF09F0F2EF09F049
:1013E000FEEF09F0000E236E000E246E000E256E37
:1013F000000E266E000E1C6E13EF0AF027C022F0BE
:10140000FF0E2316FF0E24167F0E2516000E26163D
:1014100022A00DEF0AF00FEF0AF010EF0AF0258E70
:10142000D8902230266E1C50261223C010F024C003
:1014300011F025C012F026C013F012002C50800BC2
:10144000396E2C502C24406E2BAE29EF0AF02BEF76
:101450000AF02CEF0AF040804050D8B432EF0AF086
:1014600034EF0AF049EF0AF04028D8A43AEF0AF026
:101470003CEF0AF044EF0AF0000E296E000E2A6ECF
:10148000000E2B6E000E2C6E2B8E000E2C6E51EF6C
:101490000AF0000E296E000E2A6E000E2B6E000E52
:1014A0002C6E3050800B391A30503024416E2FAEE4
:1014B0005CEF0AF05EEF0AF05FEF0AF04180415006
:1014C000D8B465EF0AF067EF0AF07CEF0AF0412824
:1014D000D8A46DEF0AF06FEF0AF077EF0AF0000E74
:1014E0002D6E000E2E6E000E2F6E000E306E2F8EA3
:1014F000000E306E84EF0AF0000E2D6E000E2E6E80
:10150000000E2F6E000E306E2D502E102F1030104A
:10151000D8A48DEF0AF08FEF0AF0A7EF0AF0000EC3
:10152000296E000E2A6E000E2B6E000E2C6E800EA1
:101530002B127F0E2C1239502C1229C029F02AC0F0
:101540002AF02BC02BF02CC02CF0EAEF0BF040500F
:10155000D8A4ADEF0AF0AFEF0AF0B9EF0AF0000E31
:10156000296E000E2A6E000E2B6E000E2C6EEAEF16
:101570000BF0415040C031F0326A315E000E325AF9
:101580007F0E31243A6E000E32203B6E29C035F0BA
:101590002AC036F02BC037F02CC038F0000E296E70
:1015A000000E2A6E000E2B6E000E2C6E000E3C6E8E
:1015B000000E3D6E000E3E6E000E3F6E000E416E40
:1015C0001AEF0BF04150D8B4E8EF0AF0EAEF0AF056
:1015D00001EF0BF0D8903536363637363836D8909E
:1015E00029362A362B362C363FAEF9EF0AF0FBEFC0
:1015F0000AF0FCEF0AF02980D8903C363D363E36A2
:101600003F362D50355C2E5036582F5037583050BD
:101610003858D8A00EEF0BF010EF0BF019EF0BF0CD
:101620003F8C2D50355E2E50365A2F50375A305041
:10163000385A412A190E416420EF0BF022EF0BF0CB
:10164000E2EF0AF03550361037103810D8B42BEFCF
:101650000BF02DEF0BF045EF0BF03C8045EF0BF05E
:10166000D89029362A362B362C363FAE3AEF0BF07F
:101670003CEF0BF03DEF0BF02980D8903C363D3627
:101680003E363F363A06D8A03B062BAE4AEF0BF06B
:101690004CEF0BF030EF0BF0000E416E3FAE53EF0E
:1016A0000BF055EF0BF079EF0BF0FF0E3C14316EA1
:1016B000FF0E3D14326EFF0E3E14336E7F0E3F144C
:1016C000346E3150321033103410D8B46AEF0BF04E
:1016D0006CEF0BF070EF0BF0010E416E79EF0BF039
:1016E00029A075EF0BF077EF0BF079EF0BF06CEFB3
:1016F0000BF04150D8B47FEF0BF081EF0BF0A5EF6A
:101700000BF0010E2926000E2A222B222C222CA0BF
:101710008CEF0BF08EEF0BF0A5EF0BF029C031F042
:101720002AC032F02BC033F02CC034F034343432C1
:1017300033323232313231C029F032C02AF033C074
:101740002BF034C02CF03A4A3B2A3BBEB0EF0BF0F2
:101750003B5008E13A28D8A0B0EF0BF0B2EF0BF005
:10176000BDEF0BF0000E3B6E3A68000E296E000EC6
:101770002A6E000E2B6E000E2C6E3BBECAEF0BF0D5
:101780003B5006E13A04D8B0C8EF0BF0CAEF0BF0BB
:10179000D8EF0BF0000E3B6E000E3A6E000E296E75
:1017A000000E2A6E000E2B6E000E2C6E000E396E8F
:1017B0003AC040F040A0DFEF0BF0E1EF0BF0E4EFB8
:1017C0000BF02B8EE5EF0BF02B9ED89040302C6E5B
:1017D0009BEF0AF012000600F2A8F1EF0BF0F3EF16
:1017E0000BF0FCEF0BF0F2A2F8EF0BF0FAEF0BF0BE
:1017F000FCEF0BF050EC14F0F0A601EF0CF003EF4F
:101800000CF00CEF0CF0F0A008EF0CF00AEF0CF06D
:101810000CEF0CF04EEC14F0F0A811EF0CF013EFFD
:101820000CF01CEF0CF0F0A218EF0CF01AEF0CF01B
:101830001CEF0CF04CEC14F09DA021EF0CF023EF0A
:101840000CF02CEF0CF09EA028EF0CF02AEF0CF01F
:101850002CEF0CF041EC14F0F2A631EF0CF033EF6A
:101860000CF04EEF0CF0F2A038EF0CF03AEF0CF069
:101870004EEF0CF081A83FEF0CF041EF0CF04EEF73
:101880000CF07B04D8A447EF0CF049EF0CF04EEFBE
:101890000CF0000E7B6E000E1FEC14F0F2A653EF5E
:1018A0000CF055EF0CF070EF0CF0F2A05AEF0CF0CA
:1018B0005CEF0CF070EF0CF081B861EF0CF063EFAF
:1018C0000CF070EF0CF07B50D8A469EF0CF06BEFCC
:1018D0000CF070EF0CF0010E7B6E010E1FEC14F09B
:1018E000F2A675EF0CF077EF0CF092EF0CF0F2A08F
:1018F0007CEF0CF07EEF0CF092EF0CF081AA83EFFE
:101900000CF085EF0CF092EF0CF07A04D8A48BEF7A
:101910000CF08DEF0CF092EF0CF0000E7A6E000ED2
:1019200012EC14F0F2A697EF0CF099EF0CF0B4EF74
:101930000CF0F2A09EEF0CF0A0EF0CF0B4EF0CF066
:1019400081BAA5EF0CF0A7EF0CF0B4EF0CF07A50D1
:10195000D8A4ADEF0CF0AFEF0CF0B4EF0CF0010E2B
:101960007A6E010E12EC14F0F2A6B9EF0CF0BBEF98
:101970000CF0D6EF0CF0F2A0C0EF0CF0C2EF0CF0C0
:10198000D6EF0CF081ACC7EF0CF0C9EF0CF0D6EF3E
:101990000CF07904D8A4CFEF0CF0D1EF0CF0D6EF17
:1019A0000CF0000E796E000E05EC14F0F2A6DBEFE1
:1019B0000CF0DDEF0CF0F8EF0CF0F2A0E2EF0CF021
:1019C000E4EF0CF0F8EF0CF081BCE9EF0CF0EBEF7A
:1019D0000CF0F8EF0CF07950D8A4F1EF0CF0F3EF25
:1019E0000CF0F8EF0CF0010E796E010E05EC14F01E
:1019F000F2A6FDEF0CF0FFEF0CF01AEF0DF0F2A0E5
:101A000004EF0DF006EF0DF01AEF0DF081AE0BEFC5
:101A10000DF00DEF0DF01AEF0DF07804D8A413EFD0
:101A20000DF015EF0DF01AEF0DF0000E786E000EB0
:101A3000F8EC13F0F2A61FEF0DF021EF0DF03CEFE4
:101A40000DF0F2A026EF0DF028EF0DF03CEF0DF0B9
:101A500081BE2DEF0DF02FEF0DF03CEF0DF0785023
:101A6000D8A435EF0DF037EF0DF03CEF0DF0010E7F
:101A7000786E010EF8EC13F07D9211001250D8A48C
:101A800044EF0DF046EF0DF04AEF0DF0000E146E2E
:101A900066EF0EF012C002F042EC0FF0146E12C0AE
:101AA00002F01250D96EDA6A000EDFBE010E036E2C
:101AB000D5EC0FF0146E1228026E42EC0FF0146E8B
:101AC0001228026E1250D96EDA6A010ED926000E63
:101AD000DFBE010E036ED5EC0FF0146E1250020F34
:101AE000026E42EC0FF0146E1250030F026E42ECC5
:101AF0000FF0146E1250040F026E42EC0FF0146ED1
:101B00001250050F026E42EC0FF0146E1250060FC9
:101B1000026E42EC0FF0146E1250070F026E42EC90
:101B20000FF0146E1250080F026E42EC0FF0146E9C
:101B30001250090F026E42EC0FF0146E1250020F99
:101B4000026E1250D96EDA6A020ED926000EDFBE7E
:101B5000010E036ED5EC0FF0146E1250030F026EDF
:101B60001250D96EDA6A030ED926000EDFBE010EBE
:101B7000036ED5EC0FF0146E1250040F026E12506B
:101B8000D96EDA6A040ED926000EDFBE010E036E8E
:101B9000D5EC0FF0146E1250050F026E1250D96E74
:101BA000DA6A050ED926000EDFBE010E036ED5ECF3
:101BB0000FF0146E1250060F026E1250D96EDA6AD0
:101BC000060ED926000EDFBE010E036ED5EC0FF017
:101BD000146E1250070F026E1250D96EDA6A070E99
:101BE000D926000EDFBE010E036ED5EC0FF0146E89
:101BF0001250080F026E1250D96EDA6A080ED926FA
:101C0000000EDFBE010E036ED5EC0FF0146E125005
:101C1000090F026E1250D96EDA6A090ED926000E2B
:101C2000DFBE010E036ED5EC0FF0146E1A0E136EAC
:101C3000F80EE82EFED7132EFCD700D012C00CF001
:101C4000380E0D6EEDEC12F0070E136E7D0EE82EC1
:101C5000FED7132EFCD7000012C00CF0380E0D6E0C
:101C6000EDEC12F0320EE82EFED712C00CF0380E5A
:101C70000D6EEDEC12F0146E12C00CF0010E0D6E34
:101C8000EDEC12F0146E12C00CF0020E0D6EEDECC5
:101C900012F0146E12C00CF0060E0D6EEDEC12F088
:101CA000146E12C00CF00C0E0D6EEDEC12F0146EF2
:101CB00012C00CF0380E0D6EEDEC12F0146E12C066
:101CC0000CF0800E0D6EEDEC12F0146E145012003C
:101CD0000A6E0A50D8B46FEF0EF071EF0EF093EF6A
:101CE0000EF005BE78EF0EF076EF0EF093EF0EF0EB
:101CF00002C006F003C007F004C008F005C009F0F8
:101D0000061E071E081E091E062A000E07220822AC
:101D1000092206C00CF007C00DF008C00EF009C083
:101D20000FF09BEF0EF002C00CF003C00DF004C0EA
:101D30000EF005C00FF00250031004100510D8A4D7
:101D4000A4EF0EF0A6EF0EF0B0EF0EF0000E026E54
:101D5000000E036E000E046E000E056E41EF0FF0D4
:101D6000960E0B6EBAEF0EF00B2AD8900F320E3291
:101D70000D320C32000E0C14066E000E0D14076EA0
:101D8000000E0E14086EFE0E0F14096E065007109A
:101D900008100910D8A4CFEF0EF0D1EF0EF0B4EF79
:101DA0000EF0DFEF0EF00B2A010E0C26000E0D22B6
:101DB0000E220F22D8900F320E320D320C32000E4E
:101DC0000C14066E000E0D14076E000E0E14086E35
:101DD000FF0E0F14096E0650071008100910D8A442
:101DE000F4EF0EF0F6EF0EF0D3EF0EF0FEEF0EF084
:101DF0000B06D8900C360D360E360F360EBE03EF9E
:101E00000FF005EF0FF00DEF0FF0020E0B600BEF70
:101E10000FF00DEF0FF0F8EF0EF00BB012EF0FF028
:101E200014EF0FF015EF0FF00E9ED8900B320BC091
:101E300006F0076A086A096A06C009F0086A076AB4
:101E4000066A06500C1207500D1208500E12095067
:101E50000F120A50D8B42FEF0FF031EF0FF039EF17
:101E60000FF005BE38EF0FF036EF0FF039EF0FF03F
:101E70000F8E0CC002F00DC003F00EC004F00FC0B6
:101E800005F01200010E086E0250D8B44AEF0FF0B0
:101E90004CEF0FF05CEF0FF00250D96EDA6ADF30D2
:101EA000E832E832070B036E070E03645AEF0FF0B7
:101EB0005CEF0FF0B3EF0FF0000E086ED3EF0FF0F2
:101EC0000250D96EDA6ADF30E832E832070B036E6F
:101ED000010E046E032A6FEF0FF0D8900436032E24
:101EE0006DEF0FF00450FF0A056E0250D96EDA6AEA
:101EF000DF50070B020DF3508A0FD96EDA6ADECF7E
:101F000006F0DDCF07F006C0D9FF07C0DAFF0550A5
:101F1000DF16D3EF0FF00250D96EDA6ADF30E83205
:101F2000E832070B036E010E046E032A9AEF0FF0DE
:101F3000D8900436032E98EF0FF00250D96EDA6A6B
:101F4000DF50070B020DF3508A0FD96EDA6ADECF2D
:101F500005F0DDCF06F005C0D9FF06C0DAFF04505A
:101F6000DF12D3EF0FF00250D96EDA6ADFBCBBEF9D
:101F70000FF0BEEF0FF0010EBFEF0FF0000E036E7B
:101F8000046A0450000AD8B4C8EF0FF05CEF0FF0F9
:101F90000350000AD8B460EF0FF0010AD8B48BEFF9
:101FA0000FF05CEF0FF008501200010E096E0250A6
:101FB000D8B4DDEF0FF0DFEF0FF0EFEF0FF00250CE
:101FC000D96EDA6ADF30E832E832070B046E070EAA
:101FD0000464EDEF0FF0EFEF0FF046EF10F0000E9E
:101FE000096E5BEF10F00250D96EDA6ADF30E8322A
:101FF000E832070B046E010E056E042A02EF10F0A2
:10200000D8900536042E00EF10F00550FF0A066E3A
:102010000250D96EDA6ADF50070B020DF3506E0FD3
:10202000D96EDA6ADECF07F0DDCF08F007C0D9FF3E
:1020300008C0DAFF0650DF165BEF10F00250D96ED1
:10204000DA6ADF30E832E832070B046E010E056E03
:10205000042A2DEF10F0D8900536042E2BEF10F047
:102060000250D96EDA6ADF50070B020DF3506E0F83
:10207000D96EDA6ADECF06F0DDCF07F006C0D9FFF1
:1020800007C0DAFF0550DF125BEF10F00350046E5B
:10209000056A0550000AD8B450EF10F0EFEF0FF0CA
:1020A0000450000AD8B4F3EF0FF0010AD8B41EEFC1
:1020B00010F0EFEF0FF009501200443445344B6E2E
:1020C0004B50D8A466EF10F068EF10F072EF10F0EC
:1020D000000E426E000E436E000E446E000E456E02
:1020E000DFEF10F042C046F043C047F044C048F074
:1020F00045C049F0200E82EF10F0D89049324832A6
:1021000047324632E82E7DEF10F046504A6E448E3C
:10211000FF0E4216FF0E4316FF0E4416000E451624
:10212000960E4B5E4BBE99EF10F097EF10F0AFEFAD
:1021300010F04B50800A970FD8B0A1EF10F0A3EF2A
:1021400010F0A5EF10F068EF10F0D890453244324F
:10215000433242324B3EA5EF10F0C7EF10F01F0E96
:102160004B64B5EF10F0B7EF10F0BFEF10F068EF71
:1021700010F0D89042364336443645364B064B5025
:10218000D8A4C5EF10F0C7EF10F0B9EF10F04A5027
:10219000D8B4CDEF10F0CFEF10F0D7EF10F0451E10
:1021A000441E431E426C000E43224422452242C07C
:1021B00042F043C043F044C044F045C045F0120033
:1021C000000E076E05BEE9EF10F0E7EF10F0EFEF3D
:1021D00010F0046C051ED8B0052A010E076E03BE70
:1021E000F6EF10F0F4EF10F0FCEF10F0026C031EAD
:1021F000D8B0032A010E071A000E096E000E086EF1
:1022000004500510D8B407EF11F009EF11F031EFC9
:1022100011F0010E066E11EF11F0D890043605365C
:10222000062A05AE16EF11F018EF11F00DEF11F0C0
:10223000D890083609360450025C05500358D8A0DF
:1022400024EF11F026EF11F02BEF11F00450025E95
:102250000550035A0880D89005320432062E18EF34
:1022600011F00750D8B437EF11F039EF11F03DEF0E
:1022700011F0086C091ED8B0092A08C002F009C084
:1022800003F01200940E126E3EEC0DF00001A06FF0
:10229000940E186E010E196E010E1A6E010E1B6E51
:1022A00088EC13F00001A06F47EC14F0A3EC11F0E0
:1022B0004C507C6E940E186E010E196E0A0E1A6E3A
:1022C0007CC002F0036A000E056E0A0E046EE0EC9C
:1022D00010F00250300F1B6EADEC13F00001A06F38
:1022E000940E186E010E196E0B0E1A6E7CC002F061
:1022F000036A000E056E0A0E046E5AEC12F00250CC
:10230000300F1B6EADEC13F00001A06F940E186E31
:10231000010E196E0D0E1A6E0E0E1B6E88EC13F068
:102320000001A06F030E00019F6F8A0E9E6F550E75
:10233000E82EFED79E2FFCD79F2FFAD700D056EF5E
:1023400011F007EF00F033EC14F083A0AAEF11F0C6
:10235000ACEF11F0A5EF11F0000ECF6E000ECE6EB7
:1023600083B0B5EF11F0B7EF11F0B0EF11F0CE5030
:10237000CFCF4EF04F6A4EC04FF04E6A4E10526EA5
:102380004F50536E000E2D6E000E2E6E000E2F6EEF
:10239000400E306E2F0E146E510E156E8D0E166E91
:1023A0003E0E176E52C002F053C003F0046A056A75
:1023B000000E68EC0EF002C010F003C011F004C073
:1023C00012F005C013F009EC08F010C029F011C09C
:1023D0002AF012C02BF013C02CF01EEC0AF029C01A
:1023E00042F02AC043F02BC044F02CC045F05DEC15
:1023F00010F042C050F043C051F050C04CF051C0FA
:102400004DF01200010E176E1250D8A40AEF12F010
:102410000CEF12F010EF12F0000E176E58EF12F0E2
:1024200014063BEF12F012C00CF01450800F0D6E2A
:10243000EDEC12F0176E58EF12F012C00CF01450C1
:10244000C00F0D6EEDEC12F0176E58EF12F012C0C7
:102450000CF01450940F0D6EEDEC12F0176E58EF57
:1024600012F012C00CF01450D40F0D6EEDEC12F0FF
:10247000176E58EF12F01350156E166A1650000AB8
:10248000D8B445EF12F058EF12F01550010AD8B445
:1024900013EF12F0030AD8B41DEF12F0010AD8B4FA
:1024A00027EF12F0070AD8B431EF12F058EF12F00C
:1024B00017501200000E076E03BE63EF12F061EFBB
:1024C00012F069EF12F0026C031ED8B0032A010E5D
:1024D000076E05BE70EF12F06EEF12F074EF12F09F
:1024E000046C051ED8B0052A04500510D8B47BEF43
:1024F00012F07DEF12F0A1EF12F0010E066E85EFE3
:1025000012F0D89004360536062A05AE8AEF12F08E
:102510008CEF12F081EF12F00450025C055003586A
:10252000D8A095EF12F097EF12F09BEF12F0045045
:10253000025E0550035AD89005320432062E8CEF05
:1025400012F00750D8B4A7EF12F0A9EF12F0ADEFD8
:1025500012F0026C031ED8B0032A02C002F003C0BE
:1025600003F01200000E116E0C50D8A4BAEF12F056
:10257000BCEF12F0C0EF12F0000E106EEBEF12F095
:102580000CC002F0010E036ED5EC0FF0000E116EC0
:102590000C501124020F026E11C00EF00DC00FF08E
:1025A0000E2AD5EF12F0D8900F320E2ED3EF12F084
:1025B0000F50010B036ED5EC0FF0112A070E1164BA
:1025C000E4EF12F0E6EF12F0C8EF12F00CC00AF0E0
:1025D000CBEC13F0106E10501200000E116E0C5068
:1025E000D8A4F5EF12F0F7EF12F0FBEF12F0000EA7
:1025F000106E26EF13F00CC002F0000E036ED5EC47
:102600000FF0000E116E0C501124020F026E11C05B
:102610000EF00DC00FF00E2A10EF13F0D8900F320D
:102620000E2E0EEF13F00F50010B036ED5EC0FF0D2
:10263000112A070E11641FEF13F021EF13F003EFBF
:1026400013F00CC00AF0CBEC13F0106E1050120017
:10265000010E146E1250D8B430EF13F032EF13F0B5
:102660003AEF13F01350D8A438EF13F03AEF13F009
:102670004CEF13F0000E146E5BEF13F012C00CF071
:1026800013C0F6FF100EF76EF86A0800F5CF0DF0D4
:10269000B2EC12F0146E132A13C0F6FF100EF76E90
:1026A000F86A0800F5500009D8A459EF13F05BEF61
:1026B00013F03EEF13F014501200D20EF66E270EF8
:1026C000F76E000EF86E00EE80F010EE1EF00900BE
:1026D000F5CFEEFFE550E150FAE1580EF66E280E08
:1026E000F76E000EF86E00EE6EF010EE0EF00900C0
:1026F000F5CFEEFFE550E150FAE100EE50F01E0E8E
:10270000EE6AE806FDE17D907D92000142EF11F056
:102710001850D8B48EEF13F090EF13F098EF13F039
:102720001B50D8A496EF13F098EF13F09CEF13F022
:10273000000E1C6EABEF13F018C012F019C013F0AE
:102740001AC014F002EC12F018C012F01BC013F003
:1027500028EC13F01C6E1C5012001850D8A4B3EFD4
:1027600013F0B5EF13F0B9EF13F0000E1C6EC9EFC4
:1027700013F018C012F019C013F01AC014F002ECD4
:1027800012F01C6E18C00CF01BC00DF0B2EC12F071
:102790001C6E1C5012000A50D8A4D1EF13F0D3EFD6
:1027A00013F0D7EF13F0000E0B6EE7EF13F00A28CB
:1027B000026E010E036ED5EC0FF000D000D00000C9
:1027C0000A28026E000E036ED5EC0FF00B6E0B5054
:1027D0001200800F810F820F830F840F920F930FCF
:1027E000940F950F960F28300109111921293139BD
:1027F000016EF2900150D8A400EF14F002EF14F033
:1028000004EF14F004EF14F01200016EF290015086
:10281000D8A40DEF14F00FEF14F011EF14F011EF36
:1028200014F01200016EF2900150D8A41AEF14F0C7
:102830001CEF14F01EEF14F01EEF14F01200016EE6
:10284000F2900150D8A427EF14F029EF14F02BEFE9
:1028500014F02BEF14F01200890F8A0F8B0F8C0FDE
:102860008D0F010101018C82030EE82EFED70000BE
:102870008C921200310ECD6E000ECF6E000ECE6E19
:1028800012009E905550CF6E54C0CEFF120095920C
:1028900095803AEC14F01200F0921200F0901200C1
:0428A000F29212009E
:020000040030CA
:0E000000FF071F1FFF8185FF0FC00FE00F409D
:00000001FF
